:100000000C9434000C9451000C9451000C94510049
:100010000C9451000C946C070C9451000C945100FA
:100020000C9451000C9451000C9451000C948906CE
:100030000C9451000C9451000C9451000C945100FC
:100040000C9451000C9451000C94270C0C9451000A
:100050000C9451000C94AB0A0C9451000C94510078
:100060000C9451000C94510011241FBECFEFD8E026
:10007000DEBFCDBF11E0A0E0B1E0E4EEFAE102C0E6
:1000800005900D92A83CB107D9F721E0A8ECB1E0AA
:1000900001C01D92AC3DB207E1F70E94400D0C94E7
:1000A000700D0C940000249823982C982B98089598
:1000B000239A8FE99FE00197F1F700C000000895AF
:1000C000239A8FE99FE00197F1F700C00000249880
:1000D0008FE99FE00197F1F700C0000023988FE9B6
:1000E0009FE00197F1F700C00000089598E0249A7E
:1000F000EFE9FFE03197F1F700C0000080FF02C098
:10010000239801C0239AEFE9FFE03197F1F700C08F
:1001100000002498EFE9FFE03197F1F700C00000FC
:100120008695915021F7249A23988FE99FE00197B3
:10013000F1F700C000002498EFE9FFE03197F1F7F4
:1001400000C00000239B239A8FE99FE00197F1F7FD
:1001500000C00000249AEFE9FFE03197F1F700C0FA
:10016000000008950E9453000E94580084E40E94F9
:1001700076000E9460000E94580080EC0E94760089
:1001800080E00E9476000E9460000E94580081EC8E
:100190000E94760080E00E9476000E9460000E942B
:1001A000580082EC0E94760080E00E9476000E9457
:1001B00060000E94580083EC0E94760080E00E945C
:1001C00076000E9460000E94580080E00E94760045
:1001D0000C946000EF92FF920F931F93CF93DF93E5
:1001E000CDB7DEB72A970FB6F894DEBF0FBECDBFEE
:1001F000382F262F5AE0652F0E94500DE82E46EF2B
:10020000032F849F000D1124822F0E94500DF82E81
:10021000122F849F100D11248AE0EFE0F1E0DE013F
:10022000119601900D928A95E1F70E9453000E9469
:10023000580084E40E9476000E9460000E945800EA
:1002400080EC0E947600E1E0F0E0EC0FFD1FEE0D87
:10025000F11D80810E9476000E9460000E9458007B
:1002600081EC0E947600E1E0F0E0EC0FFD1FE00F72
:10027000F11D808180580E9476000E9460000E94DB
:10028000580082EC0E947600E1E0F0E0EC0FFD1FE8
:10029000EF0DF11D80810E9476000E9460000E9497
:1002A000580083EC0E947600E1E0F0E0EC0FFD1FC7
:1002B000E10FF11D80810E9476000E9460000E9483
:1002C0005800809101010E9476002A960FB6F8949A
:1002D000DEBF0FBECDBFDF91CF911F910F91FF9079
:1002E000EF900C946000CF92DF92EF92FF920F9309
:1002F0001F93CF93DF93CDB7DEB7CB56D1090FB69F
:10030000F894DEBF0FBECDBF23E3E9E1F1E0DE01EB
:10031000D49601900D922A95E1F723E3ECE4F1E005
:10032000DE01119601900D922A95E1F725E0EFE7A5
:10033000F1E0DE01A959BF4F01900D922A95E1F736
:100340009C01AE0149595F4F7C0165E0E60EF11C4E
:10035000F90111919F01BE016F5F7F4F6B01FE019B
:10036000F496BF01D6010D916D01101303C00081F9
:10037000DA010C933196C616D706A1F74F5F5F4F8F
:100380002E153F0529F7DC0114968C91811136C09A
:100390000E9453000E94580084E40E9476000E944C
:1003A00060000E94580080EC0E947600A8968FADF5
:1003B000A8970E9476000E9460000E94580081EC7D
:1003C0000E947600A9968FADA9970E9476000E94A0
:1003D00060000E94580082EC0E947600AA968FADC1
:1003E000AA970E9476000E9460000E94580083EC49
:1003F0000E947600AB968FADAB9736C00E9453003B
:100400000E94580084E40E9476000E9460000E94CE
:10041000580080EC0E947600A8968FADA8970E94A5
:1004200076000E9460000E94580081EC0E947600D5
:10043000A9968FADA99780580E9476000E9460000F
:100440000E94580082EC0E947600AB968FADAB976D
:100450000E9476000E9460000E94580083EC0E9477
:100460007600AC968FADAC970E9476000E9460003B
:100470000E945800809101010E947600C559DF4F0B
:100480000FB6F894DEBF0FBECDBFDF91CF911F91A5
:100490000F91FF90EF90DF90CF900C946000CF927F
:1004A000DF92EF92FF920F931F93CF93DF93CDB71D
:1004B000DEB72A970FB6F894DEBF0FBECDBF9C0102
:1004C0008AE0EFE0F1E0DE01119601900D928A954D
:1004D000E1F7C90168EE73E00E945C0D162FE62E6D
:1004E000F72E88E19CEFE89EF001E99EF00DF89E62
:1004F000F00D1124E20FF31FCF0164E670E00E94BB
:100500005C0DAB016B01DD243CE9B6013603C00193
:10051000379F900D11248E0F9F1F6AE070E00E949C
:100520005C0D062F822F78E1179F800D1124182F64
:10053000349F100D11249AE0099F101911240E9474
:1005400053000E94580084E40E9476000E946000DC
:100550000E94580080EC0E947600E1E0F0E0EC0F91
:10056000FD1FEE0DFF1D80810E9476000E9460003D
:100570000E94580081EC0E947600E1E0F0E0EC0F70
:10058000FD1FEC0DFD1D80810E9476000E94600021
:100590000E94580082EC0E947600E1E0F0E0EC0F4F
:1005A000FD1FE00FF11D80810E9476000E94600017
:1005B0000E94580083EC0E947600E1E0F0E0EC0F2E
:1005C000FD1FE10FF11D80810E9476000E946000F6
:1005D0000E945800809101010E9476002A960FB671
:1005E000F894DEBF0FBECDBFDF91CF911F910F9169
:1005F000FF90EF90DF90CF900C946000CF93DF934B
:10060000CDB7DEB729970FB6F894DEBF0FBECDBFCA
:1006100099E0E4E8F1E0DE01119601900D929A95DF
:10062000E1F7893048F4E1E0F0E0EC0FFD1FE80F5E
:10063000F11D8081809301010E9453000E945800A7
:10064000809101010E94760029960FB6F894DEBFD2
:100650000FBECDBFDF91CF910C946000809300015D
:1006600080910001811103C00E949C0A0EC08091FC
:100670000001882351F080910001893030F40E94FC
:10068000A50A809100010E94FE026091000187E1AD
:100690000C940E0D87E10E94170D8093000180914C
:1006A00000010C942E038DE891E00E9473012FEF5E
:1006B00089E698E1215080409040E1F700C00000B9
:1006C00080910001882349F08091000190E00E9410
:1006D0004F02809100010C94FE0282E991E00C949B
:1006E0007301809100018F5F809300018091000170
:1006F000893011F41092000180910001882361F08B
:100700000E94A50A8091000190E00E944F02809112
:1007100000010E94FE020AC080910001811106C002
:1007200082E991E00E9473010E949C0A609100019D
:1007300087E10C940E0D80910001882329F08091AF
:10074000000181508093000180910001811103C05C
:1007500088E0809300018091000181110E94A50A28
:100760008091000190E00E944F02809100010E9460
:10077000FE026091000187E10C940E0D8FB7806836
:100780008FBFEFE6F0E0808182608083E0E8F0E0F8
:1007900080818E7F808380818D7F8083E1E8F0E09F
:1007A00080818860808380818F7E8083808181606A
:1007B000808380818D7F80838081846080838BE1D2
:1007C00097EB90938900809388000895813011F011
:1007D000823011F4809302010895811115C0809137
:1007E0006F008D7F80936F00809181008E7F80935A
:1007F0008100809181008D7F8093810080918100B4
:100800008B7F8093810008958130D1F41092CA01CA
:1008100080918100816080938100809181008D7F33
:100820008093810080918100846080938100109288
:1008300085001092840080916F00826080936F0029
:10084000089580E10E94170D8093CC0181E10E9400
:10085000170D8093CB018091CC01893120F48091D8
:10086000CB018D3320F01092CC011092CB01089572
:1008700082E10E94170D8093050180910501882374
:1008800021F080910501833018F081E0809305010B
:10089000089583E10E94170D8093C90184E10E94AD
:1008A000170D8093C8018091C901893120F480918E
:1008B000C8018D3320F01092C9011092C80108952B
:1008C00085E10E94170D8093040180910401882323
:1008D00021F080910401843018F081E080930401BC
:1008E00008958093CC016093CB0180910501813004
:1008F00031F46091CB018091CC010E94EA0080919B
:100900000501823071F48091CC016091CB018D3072
:1009100020F08091CC018C5002C08091CC010E94CB
:10092000EA001092CA011092850010928400609132
:10093000CC0180E10E940E0D6091CB0181E10C940D
:100940000E0D87E991E00E9473012FEF89E698E18F
:10095000215080409040E1F700C000000E94210437
:100960000E9438046091CB018091CC010E947104F7
:100970000E9449040E9460040E94BF090C944A032B
:1009800081E0809303018DE991E00E9473012FEFD4
:1009900089E698E1215080409040E1F700C00000D6
:1009A0006091CB018091CC010C94EA00809103010D
:1009B0008230A9F48091CB018F5F8093CB0180912D
:1009C000CB018C3321F08091CB018D3310F010924C
:1009D000CB016091CB018091CC010E94EA00809113
:1009E00003018130B1F48091CC018F5F8093CC0101
:1009F0008091CC01893121F08091CC018A3118F0AD
:100A000081E08093CC016091CB018091CC010E9468
:100A1000EA006091CC0180E10E940E0D6091CB0153
:100A200081E10C940E0D809103018230B1F480912C
:100A3000CB01882329F08091CB0181508093CB0199
:100A40008091CB01811103C08BE38093CB01609136
:100A5000CB018091CC010E94EA008091030181309A
:100A6000B1F48091CB01882329F08091CC01815091
:100A70008093CC018091CC01811103C088E18093E7
:100A8000CC016091CB018091CC010E94EA00609181
:100A9000CC0180E10E940E0D6091CB0181E10C94AC
:100AA0000E0D809303010895809305016091050167
:100AB00082E10E940E0D6091CB018091CC010C94DB
:100AC000710481E08093030182EA91E00E94730146
:100AD0002FEF89E698E1215080409040E1F700C077
:100AE000000080910501813021F460E088E10E94DE
:100AF000EA0080910501823021F460E08CE00C94E2
:100B0000EA000895809105018F5F8093050180912F
:100B10000501833021F080910501843018F081E0D7
:100B20008093050180910501813049F460E088E1FE
:100B30000E94EA006091050182E10E940E0D809101
:100B40000501823049F460E08CE00E94EA00609187
:100B5000050182E10C940E0D089580910501882312
:100B600029F0809105018150809305018091050154
:100B7000811103C082E080930501809105018130DD
:100B800049F460E088E10E94EA006091050182E199
:100B90000E940E0D80910501823049F460E08CE0E6
:100BA0000E94EA006091050182E10C940E0D089507
:100BB0008093C9016093C8016091C90183E10E94DB
:100BC0000E0D6091C80184E10C940E0D81E08093BC
:100BD000030187EA91E00E9473012FEF89E698E113
:100BE000215080409040E1F700C000006091C801B2
:100BF0008091C9010C94EA00809103018230A9F42C
:100C00008091C8018F5F8093C8018091C8018C33A7
:100C100021F08091C8018D3310F01092C8016091CD
:100C2000C8018091C9010E94EA00809103018130CE
:100C3000A9F48091C9018F5F8093C9018091C90196
:100C4000893121F08091C9018A3110F01092C901D7
:100C50006091C8018091C9010E94EA006091C901B8
:100C600083E10E940E0D6091C80184E10C940E0D89
:100C7000809103018230B1F48091C801882329F06A
:100C80008091C80181508093C8018091C801811171
:100C900003C08BE38093C8016091C8018091C901B2
:100CA0000E94EA00809103018130B1F48091C90172
:100CB000882329F08091C90181508093C9018091D6
:100CC000C901811103C088E18093C9016091C80105
:100CD0008091C9010E94EA006091C90183E10E94EC
:100CE0000E0D6091C80184E10C940E0D9091CC0121
:100CF0008091C90198130CC09091CB018091C801DB
:100D0000981306C02D9A809104010E946C0A2D98B8
:100D100008951F920F920FB60F9211242F933F93B5
:100D20004F935F936F937F938F939F93AF93BF93F3
:100D3000EF93FF938091CA018D5F8093CA018091E8
:100D4000CA018C3329F08091CA018D3308F440C068
:100D50001092CA018091CB018F5F8093CB0180916B
:100D6000CB018C3321F08091CB018D3390F0109228
:100D7000CB018091CC018F5F8093CC018091CC011D
:100D8000893121F08091CC018A3118F081E0809383
:100D9000CC0180910201823039F46091CB018091C5
:100DA000CC010E9471040EC080910201813069F46F
:100DB0006091CC0180E10E940E0D6091CB0181E138
:100DC0000E940E0D0E94760603C082E0809302010D
:100DD000FF91EF91BF91AF919F918F917F916F9113
:100DE0005F914F913F912F910F900FBE0F901F90E9
:100DF0001895809304016091040185E10C940E0D17
:100E00008CEA91E00E9473012FEF89E698E121506E
:100E100080409040E1F700C000008091040190E024
:100E20000E944F02809104010C946C0A809104018D
:100E30008F5F8093040180910401843021F08091C0
:100E40000401853018F081E0809304018091040151
:100E500090E00E944F02809104010E946C0A609110
:100E6000040185E10C940E0D80910401882329F082
:100E700080910401815080930401809104018111CB
:100E800003C083E0809304018091040190E00E94FC
:100E90004F02809104010E946C0A6091040185E177
:100EA0000C940E0D8FB780688FBF57985F9A569835
:100EB0005E9A55985D9AE8E6F0E0808184608083D0
:100EC000EDE6F0E0808180628083808180648083B1
:100ED00080818068808308951F920F920FB60F92D1
:100EE00011242F933F934F935F936F937F938F932F
:100EF0009F93AF93BF93EF93FF934F994CC04E9B3B
:100F00004AC04D9B48C00E94FC0980E00E94ED034E
:100F10008091CD018F5F8093CD018091CD01813093
:100F200021F4809306010E94C0048091CD0182309B
:100F300031F481E08093060180E00E946105809198
:100F4000CD01833011F40E94E6058091CD018430FB
:100F500011F40E9400078091CD01853011F40E94A8
:100F6000280A8091CD01863011F40E9453038091AC
:100F7000CD01873039F41092CD0181E00E94ED035C
:100F80000E94A1042FEF83EC99E021508040904013
:100F9000E1F700C000004F9B15C04E9913C04D9B58
:100FA00011C08091CD01813069F40E94FC090E943A
:100FB000D6042FEF83EC99E0215080409040E1F778
:100FC00000C000004F9915C04E9913C04D9B11C031
:100FD0008091CD01813069F40E94FC090E941305C3
:100FE0002FEF83EC99E0215080409040E1F700C062
:100FF00000004F9B2DC04E9B2BC04D9929C0809166
:10100000CD01813029F50E94FC09809106018F5F96
:101010008093060180910601813011F40E945105F0
:1010200080910601823011F40E94510580910601E1
:10103000833029F481E0809306010E9451052FEF4F
:1010400083EC99E0215080409040E1F700C000001F
:101050004F9B15C04E9913C04D9B11C08091CD017F
:10106000823069F40E94FC090E9482052FEF83EC14
:1010700099E0215080409040E1F700C000004F9976
:1010800015C04E9913C04D9B11C08091CD01823087
:1010900069F40E94FC090E94AD052FEF83EC99E0F2
:1010A000215080409040E1F700C000004F9B05C0F8
:1010B0004E9B03C04D9B8091CD014F9B15C04E9917
:1010C00013C04D9B11C08091CD01833069F40E9403
:1010D000FC090E94FC052FEF83EC99E02150804031
:1010E0009040E1F700C000004F9915C04E9913C021
:1010F0004D9B11C08091CD01833069F40E94FC09A1
:101100000E9438062FEF83EC99E0215080409040F8
:10111000E1F700C000004F9B2DC04E9B2BC04D99A6
:1011200029C08091CD01833029F50E94FC0980916E
:1011300006018F5F8093060180910601813011F4D2
:101140000E94510580910601823011F40E945105E0
:1011500080910601833029F481E0809306010E948A
:1011600051052FEF83EC99E0215080409040E1F74A
:1011700000C000004F9B15C04E9913C04D9B11C07D
:101180008091CD01843069F40E94FC090E94160709
:101190002FEF83EC99E0215080409040E1F700C0B0
:1011A00000004F9915C04E9913C04D9B11C08091FE
:1011B000CD01843069F40E94FC090E9434072FEFAE
:1011C00083EC99E0215080409040E1F700C000009E
:1011D0004F9B05C04E9B03C04D9B8091CD014F9B03
:1011E00015C04E9913C04D9B11C08091CD01853023
:1011F00069F40E94FC090E943E0A2FEF83EC99E0FB
:10120000215080409040E1F700C000004F9915C088
:101210004E9913C04D9B11C08091CD01853069F46A
:101220000E94FC090E94530A2FEF83EC99E02150A1
:1012300080409040E1F700C000004F9B05C04E9BEE
:1012400003C04D9B8091CD014F9B15C04E9913C09B
:101250004D9B11C08091CD01863069F40E94FC093C
:101260000E9471032FEF83EC99E021508040904061
:10127000E1F700C000004F9915C04E9913C04D9B77
:1012800011C08091CD01863069F40E94FC090E9452
:101290009B032FEF83EC99E0215080409040E1F7D1
:1012A00000C000004F9B05C04E9B03C04D9B80912A
:1012B000CD014F9916C04E9B14C04D9912C00E948B
:1012C000FC091092CD0181E00E94ED030E94A1046F
:1012D0002FEF83EC99E0215080409040E1F700C06F
:1012E00000004F9B15C04E9913C04D9911C08091BD
:1012F000CD0181110DC00E94FC090E94200D2FEF2D
:1013000083EC99E0215080409040E1F700C000005C
:101310004F9915C04E9913C04D9911C08091CD01C0
:1013200081110DC00E94FC090E94D7092FEF83ECA8
:1013300099E0215080409040E1F700C00000FF910B
:10134000EF91BF91AF919F918F917F916F915F913D
:101350004F913F912F910F900FBE0F901F901895B6
:10136000E0EBF0E080818160808380818260808317
:10137000E1EBF0E08081877F8083539A089586E1D6
:101380000E94170D8093070180910701853118F0A5
:1013900083E0809307010895E0EBF0E080818F7C8B
:1013A0008083E1EBF0E08081887F808308958091E5
:1013B000CE01813061F41092CE018091B0008F7C1B
:1013C0008093B0008091B100887F8093B100089530
:1013D000E1EBF0E0808181608083808182608083A6
:1013E00080818B7F8083E0EBF0E08081806280836E
:1013F00080818F7E808308950E94E8098091070193
:10140000E4EBF0E080832FEF81EE94E02150804008
:101410009040E1F700C0000010822FEF81EE94E0D1
:10142000215080409040E1F700C000000C94CC09AE
:1014300090910701953118F091E090930701809306
:1014400007016091070186E10E940E0D0C94FC09D2
:1014500081EB91E00E9473012FEF89E698E1215022
:1014600080409040E1F700C000008091070190E0CB
:101470000E944F02809107010C94180A8091070185
:101480008F5F8093070180910701853118F081E01B
:10149000809307018091070190E00E944F028091A4
:1014A00007010C94180A80910701882329F0809184
:1014B000070181508093070180910701811103C0CA
:1014C00084E1809307018091070190E00E944F0220
:1014D000809107010C94180ACF93C82F0E94E80945
:1014E00081E08093CE01C13021F480910701809387
:1014F000B400CF9108953B988FB780688FBFEAE71B
:10150000F0E0808183608083808184608083ECE769
:10151000F0E080818064808380818F778083808108
:101520008160808380818260808380818B7F8083E3
:101530008081877F80830895EAE7F0E08081886872
:1015400080838081806480830895EAE7F0E0808171
:1015500087778083089578941F920F920FB60F9229
:1015600011242F933F934F935F936F937F938F93A8
:101570009F93AF93BF93EF93FF93809178009091E7
:101580007900892B51F0809178009091790086390B
:10159000910518F4809108015FC0809178009091C6
:1015A00079008B3F910538F0809178009091790017
:1015B0008039914070F08091780090917900853F5A
:1015C000914050F080917800909179008835924058
:1015D00018F48091090140C08091780090917900C1
:1015E0008B38924038F080917800909179008C3B54
:1015F000924070F080917800909179008F3E9240F7
:1016000050F080917800909179008032934018F4E6
:1016100080910A0121C080917800909179008335F2
:10162000934050F0809178009091790084389340F5
:1016300018F480910B0110C080917800909179008E
:10164000873B934058F080917800909179008F3FCC
:10165000934020F480910D010E94FE0280917A0057
:10166000806480937A00FF91EF91BF91AF919F9139
:101670008F917F916F915F914F913F912F910F903B
:101680000FBE0F901F9018959C012A5F3F4F40910D
:10169000C00045FFFCCFFC014191CF014093C60043
:1016A000E217F307A1F708958FB780688FBFA1EC09
:1016B000B0E08C9188618C938C9180688C93E2EC83
:1016C000F0E080818F73808380818F7C8083808134
:1016D000877F80838C918B7F8C93808186608083D1
:1016E00087E690E09093C5008093C400E0ECF0E0C2
:1016F00080818D7F808386EB91E00C94440BE8ED34
:10170000F1E0908181812281638160513AE0239FE1
:10171000600D112480512AE0929F800D11240E94B7
:1017200071048CEB91E00E94440B0C94FC09209115
:10173000D80120538091D901805390E03AE0239F53
:10174000800D911D1124489781F42091DA012053D6
:101750008091DB01805390E03AE0239F800D911D42
:101760001124892B11F481E01DC02091D801205350
:101770008091D901805390E03AE0239F800D911D24
:1017800011240C97B9F42091DA0120538091DB01E8
:10179000805390E03AE0239F800D911D1124892B06
:1017A00049F482E00E9454058CEB91E00E94440BC6
:1017B0000C94FC0982EC91E00C94440BE8EDF1E010
:1017C000908181812281638160513AE0239F600D85
:1017D000112480512AE0929F800D11240E94D80587
:1017E0008CEB91E00E94440B0C94FC090C94D709FB
:1017F0008091DB0180530E94F9068CEB91E00E94FE
:10180000440B0C94FC09E8EDF1E092818381805156
:101810002AE0929F800D11240E94180A8CEB91E01F
:101820000E94440B0C94FC098091DB0180530E94C0
:101830002E038CEB91E00E94440B0C94FC090E9457
:10184000200D8CEB91E00E94440B0C94FC091F923C
:101850000F920FB60F9211242F933F934F935F93E4
:101860006F937F938F939F93AF93BF93EF93FF9368
:1018700095B180E2892785B980E090E02091C00091
:1018800027FFFCCF2091C600FC01E053FE4F2083D0
:1018900001968830910591F795B180E2892785B945
:1018A0008091D4018093D8018091D5018093D90192
:1018B0008091D6018093DA018091D7018093DB017A
:1018C0008091D001833579F48091D101843559F428
:1018D0008091D2018D3239F48091D3018D3219F487
:1018E0000E947F0B89C08091D001853479F480916A
:1018F000D101863459F48091D2018D3239F480912E
:10190000D3018D3219F40E94970B76C08091D001DB
:10191000833579F48091D101813459F48091D201D9
:101920008D3239F48091D3018D3219F40E94DE0B8F
:1019300063C08091D001803579F48091D1018134E8
:1019400059F48091D2018D3239F48091D3018D32D6
:1019500019F40E94D70950C08091D001813479F4E4
:101960008091D101823559F48091D2018D3239F4C0
:101970008091D3018D3219F40E94F80B3DC0809103
:10198000D001823479F48091D101863559F4809167
:10199000D2018D3239F48091D3018D3219F40E9435
:1019A000030C2AC08091D001843479F48091D10154
:1019B000823459F48091D2018D3239F48091D3016F
:1019C0008D3219F40E94140C17C08091D001833518
:1019D00079F48091D1018C3459F48091D2018D3207
:1019E00039F48091D3018D3219F40E941F0C04C088
:1019F00082EC91E00E94440BFF91EF91BF91AF9177
:101A00009F918F917F916F915F914F913F912F9116
:101A10000F900FBE0F901F9018950895F999FECF63
:101A200090E092BD81BD60BDFA9AF99A0895F99946
:101A3000FECF90E092BD81BDF89AF99A80B50895E5
:101A40008091CF018F5F8093CF018091CF01813052
:101A500051F48091CF010E94E6030E94A50A0E94E2
:101A6000B2000C94CC098091CF01823041F4809176
:101A7000CF010E94E6030E94A1041092CF010895B5
:101A8000259A0E947B0A0E94A1040E94BE030E9424
:101A900052070E94B0090E940D0D0E94540BFFCF07
:101AA000991B79E004C0991F961708F0961B881FB0
:101AB0007A95C9F780950895AA1BBB1B51E107C011
:101AC000AA1FBB1FA617B70710F0A61BB70B881FCE
:101AD000991F5A95A9F780959095BC01CD0108955D
:041AE000F894FFCFA8
:101AE4000188020101010103010203040506073F05
:101AF400065B4F666D7D077F6F3F065B4F666D7DAE
:101B0400077F6F77777C7C39585E5E797971712FA6
:101B14002F767410101E1E7070383854545C5C7329
:101B2400736767505078783E1C80400830313233F8
:101B3400343536373839416142624363446445651C
:101B440046664767486849694A6A4B6B4C6C4E6EF7
:101B54004F6F507051715272547455753A2D5F40E5
:101B6400404040408888898A8B8C8D8E8F2D4272AC
:101B74002D004175746F002D2D3A2D2D002D4574C7
:101B84002D002D45462D002D414C2D002D41742D49
:101B9400002D62552D0048656C6C6F00446F6E65B6
:081BA4002E004572726F720001
:00000001FF
